{
  "_format": "hh-sol-artifact-1",
  "contractName": "CertificateVerification",
  "sourceName": "contracts/CertificateVerification.sol",
  "abi": [
    {
      "inputs": [],
      "stateMutability": "nonpayable",
      "type": "constructor"
    },
    {
      "inputs": [],
      "name": "admin",
      "outputs": [
        {
          "internalType": "address",
          "name": "",
          "type": "address"
        }
      ],
      "stateMutability": "view",
      "type": "function"
    },
    {
      "inputs": [
        {
          "internalType": "bytes32",
          "name": "",
          "type": "bytes32"
        }
      ],
      "name": "certificates",
      "outputs": [
        {
          "internalType": "string",
          "name": "studentName",
          "type": "string"
        },
        {
          "internalType": "string",
          "name": "courseName",
          "type": "string"
        },
        {
          "internalType": "string",
          "name": "issuedDate",
          "type": "string"
        },
        {
          "internalType": "string",
          "name": "ipfsHash",
          "type": "string"
        },
        {
          "internalType": "bool",
          "name": "isValid",
          "type": "bool"
        }
      ],
      "stateMutability": "view",
      "type": "function"
    },
    {
      "inputs": [
        {
          "internalType": "string",
          "name": "studentName",
          "type": "string"
        },
        {
          "internalType": "string",
          "name": "courseName",
          "type": "string"
        },
        {
          "internalType": "string",
          "name": "issuedDate",
          "type": "string"
        },
        {
          "internalType": "string",
          "name": "ipfsHash",
          "type": "string"
        }
      ],
      "name": "issueCertificate",
      "outputs": [],
      "stateMutability": "nonpayable",
      "type": "function"
    },
    {
      "inputs": [
        {
          "internalType": "string",
          "name": "studentName",
          "type": "string"
        },
        {
          "internalType": "string",
          "name": "courseName",
          "type": "string"
        },
        {
          "internalType": "string",
          "name": "issuedDate",
          "type": "string"
        }
      ],
      "name": "verifyCertificate",
      "outputs": [
        {
          "internalType": "bool",
          "name": "",
          "type": "bool"
        },
        {
          "internalType": "string",
          "name": "",
          "type": "string"
        }
      ],
      "stateMutability": "view",
      "type": "function"
    }
  ],
  "bytecode": "0x6080604052348015600f57600080fd5b50336000806101000a81548173ffffffffffffffffffffffffffffffffffffffff021916908373ffffffffffffffffffffffffffffffffffffffff1602179055506110b08061005f6000396000f3fe608060405234801561001057600080fd5b506004361061004c5760003560e01c80635b982f0e14610051578063742f068814610082578063818a2994146100b6578063f851a440146100d2575b600080fd5b61006b6004803603810190610066919061091d565b6100f0565b604051610079929190610a5e565b60405180910390f35b61009c60048036038101906100979190610ac4565b6103c0565b6040516100ad959493929190610af1565b60405180910390f35b6100d060048036038101906100cb9190610b60565b610623565b005b6100da61079f565b6040516100e79190610c78565b60405180910390f35b60006060600085858560405160200161010b93929190610ccf565b6040516020818303038152906040528051906020012090506000600160008381526020019081526020016000206040518060a001604052908160008201805461015390610d2f565b80601f016020809104026020016040519081016040528092919081815260200182805461017f90610d2f565b80156101cc5780601f106101a1576101008083540402835291602001916101cc565b820191906000526020600020905b8154815290600101906020018083116101af57829003601f168201915b505050505081526020016001820180546101e590610d2f565b80601f016020809104026020016040519081016040528092919081815260200182805461021190610d2f565b801561025e5780601f106102335761010080835404028352916020019161025e565b820191906000526020600020905b81548152906001019060200180831161024157829003601f168201915b5050505050815260200160028201805461027790610d2f565b80601f01602080910402602001604051908101604052809291908181526020018280546102a390610d2f565b80156102f05780601f106102c5576101008083540402835291602001916102f0565b820191906000526020600020905b8154815290600101906020018083116102d357829003601f168201915b5050505050815260200160038201805461030990610d2f565b80601f016020809104026020016040519081016040528092919081815260200182805461033590610d2f565b80156103825780601f1061035757610100808354040283529160200191610382565b820191906000526020600020905b81548152906001019060200180831161036557829003601f168201915b505050505081526020016004820160009054906101000a900460ff161515151581525050905080608001518160600151935093505050935093915050565b60016020528060005260406000206000915090508060000180546103e390610d2f565b80601f016020809104026020016040519081016040528092919081815260200182805461040f90610d2f565b801561045c5780601f106104315761010080835404028352916020019161045c565b820191906000526020600020905b81548152906001019060200180831161043f57829003601f168201915b50505050509080600101805461047190610d2f565b80601f016020809104026020016040519081016040528092919081815260200182805461049d90610d2f565b80156104ea5780601f106104bf576101008083540402835291602001916104ea565b820191906000526020600020905b8154815290600101906020018083116104cd57829003601f168201915b5050505050908060020180546104ff90610d2f565b80601f016020809104026020016040519081016040528092919081815260200182805461052b90610d2f565b80156105785780601f1061054d57610100808354040283529160200191610578565b820191906000526020600020905b81548152906001019060200180831161055b57829003601f168201915b50505050509080600301805461058d90610d2f565b80601f01602080910402602001604051908101604052809291908181526020018280546105b990610d2f565b80156106065780601f106105db57610100808354040283529160200191610606565b820191906000526020600020905b8154815290600101906020018083116105e957829003601f168201915b5050505050908060040160009054906101000a900460ff16905085565b60008054906101000a900473ffffffffffffffffffffffffffffffffffffffff1673ffffffffffffffffffffffffffffffffffffffff163373ffffffffffffffffffffffffffffffffffffffff16146106b1576040517f08c379a00000000000000000000000000000000000000000000000000000000081526004016106a890610dd2565b60405180910390fd5b60008484846040516020016106c893929190610ccf565b6040516020818303038152906040528051906020012090506040518060a00160405280868152602001858152602001848152602001838152602001600115158152506001600083815260200190815260200160002060008201518160000190816107329190610fa8565b5060208201518160010190816107489190610fa8565b50604082015181600201908161075e9190610fa8565b5060608201518160030190816107749190610fa8565b5060808201518160040160006101000a81548160ff0219169083151502179055509050505050505050565b60008054906101000a900473ffffffffffffffffffffffffffffffffffffffff1681565b6000604051905090565b600080fd5b600080fd5b600080fd5b600080fd5b6000601f19601f8301169050919050565b7f4e487b7100000000000000000000000000000000000000000000000000000000600052604160045260246000fd5b61082a826107e1565b810181811067ffffffffffffffff82111715610849576108486107f2565b5b80604052505050565b600061085c6107c3565b90506108688282610821565b919050565b600067ffffffffffffffff821115610888576108876107f2565b5b610891826107e1565b9050602081019050919050565b82818337600083830152505050565b60006108c06108bb8461086d565b610852565b9050828152602081018484840111156108dc576108db6107dc565b5b6108e784828561089e565b509392505050565b600082601f830112610904576109036107d7565b5b81356109148482602086016108ad565b91505092915050565b600080600060608486031215610936576109356107cd565b5b600084013567ffffffffffffffff811115610954576109536107d2565b5b610960868287016108ef565b935050602084013567ffffffffffffffff811115610981576109806107d2565b5b61098d868287016108ef565b925050604084013567ffffffffffffffff8111156109ae576109ad6107d2565b5b6109ba868287016108ef565b9150509250925092565b60008115159050919050565b6109d9816109c4565b82525050565b600081519050919050565b600082825260208201905092915050565b60005b83811015610a195780820151818401526020810190506109fe565b60008484015250505050565b6000610a30826109df565b610a3a81856109ea565b9350610a4a8185602086016109fb565b610a53816107e1565b840191505092915050565b6000604082019050610a7360008301856109d0565b8181036020830152610a858184610a25565b90509392505050565b6000819050919050565b610aa181610a8e565b8114610aac57600080fd5b50565b600081359050610abe81610a98565b92915050565b600060208284031215610ada57610ad96107cd565b5b6000610ae884828501610aaf565b91505092915050565b600060a0820190508181036000830152610b0b8188610a25565b90508181036020830152610b1f8187610a25565b90508181036040830152610b338186610a25565b90508181036060830152610b478185610a25565b9050610b5660808301846109d0565b9695505050505050565b60008060008060808587031215610b7a57610b796107cd565b5b600085013567ffffffffffffffff811115610b9857610b976107d2565b5b610ba4878288016108ef565b945050602085013567ffffffffffffffff811115610bc557610bc46107d2565b5b610bd1878288016108ef565b935050604085013567ffffffffffffffff811115610bf257610bf16107d2565b5b610bfe878288016108ef565b925050606085013567ffffffffffffffff811115610c1f57610c1e6107d2565b5b610c2b878288016108ef565b91505092959194509250565b600073ffffffffffffffffffffffffffffffffffffffff82169050919050565b6000610c6282610c37565b9050919050565b610c7281610c57565b82525050565b6000602082019050610c8d6000830184610c69565b92915050565b600081905092915050565b6000610ca9826109df565b610cb38185610c93565b9350610cc38185602086016109fb565b80840191505092915050565b6000610cdb8286610c9e565b9150610ce78285610c9e565b9150610cf38284610c9e565b9150819050949350505050565b7f4e487b7100000000000000000000000000000000000000000000000000000000600052602260045260246000fd5b60006002820490506001821680610d4757607f821691505b602082108103610d5a57610d59610d00565b5b50919050565b7f4f6e6c792061646d696e2063616e20697373756520636572746966696361746560008201527f7300000000000000000000000000000000000000000000000000000000000000602082015250565b6000610dbc6021836109ea565b9150610dc782610d60565b604082019050919050565b60006020820190508181036000830152610deb81610daf565b9050919050565b60008190508160005260206000209050919050565b60006020601f8301049050919050565b600082821b905092915050565b600060088302610e547fffffffffffffffffffffffffffffffffffffffffffffffffffffffffffffffff82610e17565b610e5e8683610e17565b95508019841693508086168417925050509392505050565b6000819050919050565b6000819050919050565b6000610ea5610ea0610e9b84610e76565b610e80565b610e76565b9050919050565b6000819050919050565b610ebf83610e8a565b610ed3610ecb82610eac565b848454610e24565b825550505050565b600090565b610ee8610edb565b610ef3818484610eb6565b505050565b5b81811015610f1757610f0c600082610ee0565b600181019050610ef9565b5050565b601f821115610f5c57610f2d81610df2565b610f3684610e07565b81016020851015610f45578190505b610f59610f5185610e07565b830182610ef8565b50505b505050565b600082821c905092915050565b6000610f7f60001984600802610f61565b1980831691505092915050565b6000610f988383610f6e565b9150826002028217905092915050565b610fb1826109df565b67ffffffffffffffff811115610fca57610fc96107f2565b5b610fd48254610d2f565b610fdf828285610f1b565b600060209050601f8311600181146110125760008415611000578287015190505b61100a8582610f8c565b865550611072565b601f19841661102086610df2565b60005b8281101561104857848901518255600182019150602085019450602081019050611023565b868310156110655784890151611061601f891682610f6e565b8355505b6001600288020188555050505b50505050505056fea2646970667358221220d7642fd9b48d0c634f4dccb4b4c20e8256dffc763e8dc9da4b626b419041e5c664736f6c634300081c0033",
  "linkReferences": {},
  "deployedLinkReferences": {}
}